{
	"contracts/calling-parent-functions.sol": {
		"GrandParent": {
			"abi": [
				{
					"anonymous": false,
					"inputs": [
						{
							"indexed": false,
							"internalType": "string",
							"name": "details",
							"type": "string"
						}
					],
					"name": "Details",
					"type": "event"
				},
				{
					"inputs": [],
					"name": "getName",
					"outputs": [],
					"stateMutability": "nonpayable",
					"type": "function"
				}
			],
			"devdoc": {
				"kind": "dev",
				"methods": {},
				"version": 1
			},
			"evm": {
				"assembly": "    /* \"contracts/calling-parent-functions.sol\":67:225  contract GrandParent {... */\n  mstore(0x40, 0x80)\n  callvalue\n  dup1\n  iszero\n  tag_1\n  jumpi\n  0x00\n  dup1\n  revert\ntag_1:\n  pop\n  dataSize(sub_0)\n  dup1\n  dataOffset(sub_0)\n  0x00\n  codecopy\n  0x00\n  return\nstop\n\nsub_0: assembly {\n        /* \"contracts/calling-parent-functions.sol\":67:225  contract GrandParent {... */\n      mstore(0x40, 0x80)\n      callvalue\n      dup1\n      iszero\n      tag_1\n      jumpi\n      0x00\n      dup1\n      revert\n    tag_1:\n      pop\n      jumpi(tag_2, lt(calldatasize, 0x04))\n      shr(0xe0, calldataload(0x00))\n      dup1\n      0x17d7de7c\n      eq\n      tag_3\n      jumpi\n    tag_2:\n      0x00\n      dup1\n      revert\n        /* \"contracts/calling-parent-functions.sol\":137:222  function getName() virtual public {... */\n    tag_3:\n      tag_4\n      tag_5\n      jump\t// in\n    tag_4:\n      stop\n    tag_5:\n        /* \"contracts/calling-parent-functions.sol\":187:214  Details(\"GrandParent.Name\") */\n      0x49db7f1c394f47bef5ab4b075aace7b956117c254730d64ac4e9fbfad57efdd1\n      mload(0x40)\n      tag_7\n      swap1\n      tag_8\n      jump\t// in\n    tag_7:\n      mload(0x40)\n      dup1\n      swap2\n      sub\n      swap1\n      log1\n        /* \"contracts/calling-parent-functions.sol\":137:222  function getName() virtual public {... */\n      jump\t// out\n        /* \"#utility.yul\":7:176   */\n    tag_9:\n        /* \"#utility.yul\":91:102   */\n      0x00\n        /* \"#utility.yul\":125:131   */\n      dup3\n        /* \"#utility.yul\":120:123   */\n      dup3\n        /* \"#utility.yul\":113:132   */\n      mstore\n        /* \"#utility.yul\":165:169   */\n      0x20\n        /* \"#utility.yul\":160:163   */\n      dup3\n        /* \"#utility.yul\":156:170   */\n      add\n        /* \"#utility.yul\":141:170   */\n      swap1\n      pop\n        /* \"#utility.yul\":7:176   */\n      swap3\n      swap2\n      pop\n      pop\n      jump\t// out\n        /* \"#utility.yul\":182:348   */\n    tag_10:\n        /* \"#utility.yul\":322:340   */\n      0x4772616e64506172656e742e4e616d6500000000000000000000000000000000\n        /* \"#utility.yul\":318:319   */\n      0x00\n        /* \"#utility.yul\":310:316   */\n      dup3\n        /* \"#utility.yul\":306:320   */\n      add\n        /* \"#utility.yul\":299:341   */\n      mstore\n        /* \"#utility.yul\":182:348   */\n      pop\n      jump\t// out\n        /* \"#utility.yul\":354:720   */\n    tag_11:\n        /* \"#utility.yul\":496:499   */\n      0x00\n        /* \"#utility.yul\":517:584   */\n      tag_16\n        /* \"#utility.yul\":581:583   */\n      0x10\n        /* \"#utility.yul\":576:579   */\n      dup4\n        /* \"#utility.yul\":517:584   */\n      tag_9\n      jump\t// in\n    tag_16:\n        /* \"#utility.yul\":510:584   */\n      swap2\n      pop\n        /* \"#utility.yul\":593:686   */\n      tag_17\n        /* \"#utility.yul\":682:685   */\n      dup3\n        /* \"#utility.yul\":593:686   */\n      tag_10\n      jump\t// in\n    tag_17:\n        /* \"#utility.yul\":711:713   */\n      0x20\n        /* \"#utility.yul\":706:709   */\n      dup3\n        /* \"#utility.yul\":702:714   */\n      add\n        /* \"#utility.yul\":695:714   */\n      swap1\n      pop\n        /* \"#utility.yul\":354:720   */\n      swap2\n      swap1\n      pop\n      jump\t// out\n        /* \"#utility.yul\":726:1145   */\n    tag_8:\n        /* \"#utility.yul\":892:896   */\n      0x00\n        /* \"#utility.yul\":930:932   */\n      0x20\n        /* \"#utility.yul\":919:928   */\n      dup3\n        /* \"#utility.yul\":915:933   */\n      add\n        /* \"#utility.yul\":907:933   */\n      swap1\n      pop\n        /* \"#utility.yul\":979:988   */\n      dup2\n        /* \"#utility.yul\":973:977   */\n      dup2\n        /* \"#utility.yul\":969:989   */\n      sub\n        /* \"#utility.yul\":965:966   */\n      0x00\n        /* \"#utility.yul\":954:963   */\n      dup4\n        /* \"#utility.yul\":950:967   */\n      add\n        /* \"#utility.yul\":943:990   */\n      mstore\n        /* \"#utility.yul\":1007:1138   */\n      tag_19\n        /* \"#utility.yul\":1133:1137   */\n      dup2\n        /* \"#utility.yul\":1007:1138   */\n      tag_11\n      jump\t// in\n    tag_19:\n        /* \"#utility.yul\":999:1138   */\n      swap1\n      pop\n        /* \"#utility.yul\":726:1145   */\n      swap2\n      swap1\n      pop\n      jump\t// out\n\n    auxdata: 0xa2646970667358221220df6ea06befa1334b4e959e7c41eb8ad0939ca134ef61f959d745d5f28d794d5064736f6c63430008110033\n}\n",
				"bytecode": {
					"linkReferences": {},
					"object": "608060405234801561001057600080fd5b50610117806100206000396000f3fe6080604052348015600f57600080fd5b506004361060285760003560e01c806317d7de7c14602d575b600080fd5b60336035565b005b7f49db7f1c394f47bef5ab4b075aace7b956117c254730d64ac4e9fbfad57efdd160405160609060c3565b60405180910390a1565b600082825260208201905092915050565b7f4772616e64506172656e742e4e616d6500000000000000000000000000000000600082015250565b600060af601083606a565b915060b882607b565b602082019050919050565b6000602082019050818103600083015260da8160a4565b905091905056fea2646970667358221220df6ea06befa1334b4e959e7c41eb8ad0939ca134ef61f959d745d5f28d794d5064736f6c63430008110033",
					"opcodes": "PUSH1 0x80 PUSH1 0x40 MSTORE CALLVALUE DUP1 ISZERO PUSH2 0x10 JUMPI PUSH1 0x0 DUP1 REVERT JUMPDEST POP PUSH2 0x117 DUP1 PUSH2 0x20 PUSH1 0x0 CODECOPY PUSH1 0x0 RETURN INVALID PUSH1 0x80 PUSH1 0x40 MSTORE CALLVALUE DUP1 ISZERO PUSH1 0xF JUMPI PUSH1 0x0 DUP1 REVERT JUMPDEST POP PUSH1 0x4 CALLDATASIZE LT PUSH1 0x28 JUMPI PUSH1 0x0 CALLDATALOAD PUSH1 0xE0 SHR DUP1 PUSH4 0x17D7DE7C EQ PUSH1 0x2D JUMPI JUMPDEST PUSH1 0x0 DUP1 REVERT JUMPDEST PUSH1 0x33 PUSH1 0x35 JUMP JUMPDEST STOP JUMPDEST PUSH32 0x49DB7F1C394F47BEF5AB4B075AACE7B956117C254730D64AC4E9FBFAD57EFDD1 PUSH1 0x40 MLOAD PUSH1 0x60 SWAP1 PUSH1 0xC3 JUMP JUMPDEST PUSH1 0x40 MLOAD DUP1 SWAP2 SUB SWAP1 LOG1 JUMP JUMPDEST PUSH1 0x0 DUP3 DUP3 MSTORE PUSH1 0x20 DUP3 ADD SWAP1 POP SWAP3 SWAP2 POP POP JUMP JUMPDEST PUSH32 0x4772616E64506172656E742E4E616D6500000000000000000000000000000000 PUSH1 0x0 DUP3 ADD MSTORE POP JUMP JUMPDEST PUSH1 0x0 PUSH1 0xAF PUSH1 0x10 DUP4 PUSH1 0x6A JUMP JUMPDEST SWAP2 POP PUSH1 0xB8 DUP3 PUSH1 0x7B JUMP JUMPDEST PUSH1 0x20 DUP3 ADD SWAP1 POP SWAP2 SWAP1 POP JUMP JUMPDEST PUSH1 0x0 PUSH1 0x20 DUP3 ADD SWAP1 POP DUP2 DUP2 SUB PUSH1 0x0 DUP4 ADD MSTORE PUSH1 0xDA DUP2 PUSH1 0xA4 JUMP JUMPDEST SWAP1 POP SWAP2 SWAP1 POP JUMP INVALID LOG2 PUSH5 0x6970667358 0x22 SLT KECCAK256 0xDF PUSH15 0xA06BEFA1334B4E959E7C41EB8AD093 SWAP13 LOG1 CALLVALUE 0xEF PUSH2 0xF959 0xD7 GASLIMIT 0xD5 CALLCODE DUP14 PUSH26 0x4D5064736F6C6343000811003300000000000000000000000000 "
				},
				"gasEstimates": {
					"creation": {
						"codeDepositCost": "55800",
						"executionCost": "105",
						"totalCost": "55905"
					},
					"external": {
						"getName()": "1924"
					}
				},
				"methodIdentifiers": {
					"getName()": "17d7de7c"
				}
			},
			"storageLayout": {
				"storage": [],
				"types": null
			},
			"userdoc": {
				"kind": "user",
				"methods": {},
				"version": 1
			}
		}
	}
}